:020000020000FC
:0200000024C01A
:0200100042C0EC
:1000400048C00FEF0DBF08E00EBF00E8009361004D
:1000500004E0009361000E945E0000E007B90FEF2A
:1000600008B90FEF04B900E005B90FEF0AB900E0D5
:100070000BB900E00093C10050E00E94630002E071
:100080000093680003E000936C0001E000936E00B1
:10009000789410E0FFCF26B120FF0E94530021FF8B
:1000A0000E94590018953395303109F430E035B984
:1000B0000895303009F03A9535B9089503E005BD4B
:1000C00004E606BD0895F0E0E4EFE50F74917BB916
:1000D00008950F930FB70F936395643629F466273D
:1000E00053955A3009F450E00E9463000F910FBFFE
:0E00F0000F9118953F065B4F666D7D077F6789
:00000001FF
