:020000020000FC
:0200000024C01A
:0200100076C0B8
:1000400066C00FEF0DBF08E00EBF00E8009361002F
:1000500004E0009361000E94570000E007B90FEF31
:1000600008B90FEF04B900E005B90FEF0AB900E0D5
:100070000BB900E00093C10050E00E945C0090E0EA
:1000800002E00093680003E000936C0001E000933D
:100090006E00789410E0FFCF3395303109F430E0F2
:1000A00035B90895303009F03A9535B9089503E02F
:1000B00005BD04E606BD08952C9A2D98F1E0E8E30D
:1000C000E80F74917BB90E9472002C982D9AF1E090
:1000D000E8E3E90F74917BB90E94720008958827C4
:1000E000939508952FEF2A952030E9F72FEF2A9561
:1000F0002030E9F72FEF2A952030E9F7089526B14F
:1001000020FF0E944C0021FF0E94520018950F937F
:100110000FB70F936395643649F4662783958A3049
:1001200029F40E946F00963009F499270E945C0020
:100130000F910FBF0F9118953F065B4F666D7D07BE
:020140007F67D7
:00000001FF
